:020000040800F2
:10000000E0100020710200082F0D0008DD0C000830
:100010002D0D000867040008DD0D00080000000039
:10002000000000000000000000000000330D000888
:100030006904000800000000310D0008350D0008BB
:100040008B0200088B0200088B0200088B0200085C
:100050008B0200088B0200088B0200088B0200084C
:100060008B0200088B0200088B0200088B0200083C
:100070008B0200088B0200088B0200088B0200082C
:100080008B0200088B0200088B0200088B0200081C
:100090008B0200088B0200088B0200088B0200080C
:1000A0008B0200088B0200088B0200088B020008FC
:1000B0008B0200088B0200088B0200088B020008EC
:1000C0008B0200088B0200088B0200088B020008DC
:1000D0008B0200088B0200088B0200088B020008CC
:1000E0008B0200088B0200088B0200088B020008BC
:1000F0008B0200088B0200088B0200088B020008AC
:100100008B0200088B0200088B0200088B0200089B
:100110008B0200088B0200088B0200088B0200088B
:100120008B0200088B0200088B0200088B0200087B
:100130008B0200088B0200088B0200088B0200086B
:100140008B0200088B0200088B0200088B0200085B
:100150008B0200088B0200088B0200088B0200084B
:100160008B0200088B0200088B0200088B0200083B
:100170008B0200088B0200088B02000800000000C0
:100180008B0200088B02000800F002F800F060F813
:100190000AA090E8000C82448344AAF10107DA45E2
:1001A00001D100F055F8AFF2090EBAE80F0013F0D4
:1001B000010F18BFFB1A43F001031847140D00008C
:1001C000340D000010F8013B0A4413F0030408BF8B
:1001D00010F8014B1D1108BF10F8015B641E05D01B
:1001E00010F8016B641E01F8016BF9D1002D15D0D8
:1001F00010F8014B03F00C030C2BA1EB04040ABF15
:1002000010F8013BA4EB8314A4EB032405F10103D4
:1002100014F8016B5B1E01F8016BF9D5914238BFF0
:1002200010F8013BD1D3704700230024002500269D
:10023000103A28BF78C1FBD8520728BF30C148BF49
:100240000B6070471FB500F035FE1FBD10B510BD27
:1002500000F0CFF81146FFF7F5FF00F0D1FD00F0F8
:10026000EDF803B4FFF7F2FF03BC00F0F5F800006F
:100270000948804709480047FEE7FEE7FEE7FEE73A
:10028000FEE7FEE7FEE7FEE7FEE7FEE70448054976
:10029000054A064B70470000CD0D00088901000893
:1002A000E00A0020E0100020E00C0020E00C00201C
:1002B00053EA020C00F069802DE9F04B4FF0000684
:1002C000002B1FBFB3FA83F503FA05F424FA05F6F1
:1002D0005E4012BF1643B2FA82F502FA05F4C5F188
:1002E00020051EBF22FA05FC44EA0C04203556EA1C
:1002F000044C4FEA144418BF641C4FF000084FF040
:100300000009904271EB030C39D3002919BFB1FAEF
:1003100081F701FA07F6B0FA80F700FA07F6C7F19D
:1003200020071EBF20FA07FC46EA0C062037B6FB62
:10033000F4FCA7EB0507103F07F01F0BCBF12006DD
:100340000CFA0BFB2CFA06F644BFB3460026202F0E
:10035000A4BF5E464FF0000B5BEA060C08BF4FF0EF
:10036000010B19EB0B09ABFB027C48EB0608C01B29
:1003700006FB02CC0BFB03CC71EB0C01C1E70B4677
:10038000024641464846BDE8F08B13B54FF00000E9
:100390004FF00001AFF30080BDE81C4070474FF004
:1003A000000200B5134694469646203922BFA0E8C5
:1003B0000C50A0E80C50B1F12001BFF4F7AF0907D1
:1003C00028BFA0E80C5048BF0CC05DF804EB8900C2
:1003D00028BF40F8042B08BF704748BF20F8022B05
:1003E00011F0804F18BF00F8012B7047704770471D
:1003F0007047754600F02CF8AE4605006946534636
:1004000020F00700854618B020B5FFF73FFFBDE894
:1004100020404FF000064FF000074FF000084FF06B
:10042000000B21F00701AC46ACE8C009ACE8C009FC
:10043000ACE8C009ACE8C0098D46704710B5044669
:10044000AFF300802046BDE81040FFF70ABF000070
:10045000004870477C0A002001491820ABBEFEE727
:10046000260002007047FEE77047000070B50446A2
:1004700000F00CF90546601C02D0044800780444E2
:1004800000F004F9401BA042FAD370BD6C0A0020B2
:100490002DE9F84FDFF8BCA10022012503264FF01B
:1004A0000F090AF1040BAAF1040E00BF0B6805FA4C
:1004B00002F42340A34270D10F7907F00307012F04
:1004C00001D0022F16D187684FEA420806FA08FCCD
:1004D00027EA0C07D1F80CC00CFA08FC4CEA070C10
:1004E000C0F808C04768A7430C79C4F300149440CF
:1004F0003C4344600C79E443A4070AD0C4684FEA43
:10050000420C06FA0CF7BC438F6807FA0CF7274336
:10051000C7600C7904F00304022C12D1D40800EB5C
:10052000840CDCF820405707FF0E09FA07F824EA8C
:100530000804D1F8108008FA07F848EA0408CCF853
:10054000208004684FEA420C06FA0CF7BC430F798E
:1005500007F0030707FA0CF7274307604C6814F409
:10056000403F70D03C4C276847F4804727602468A0
:1005700022F0030704F480440094384C07EB040C89
:10058000DCF8084897074FEA177809FA08F7BC43E0
:10059000334FB84202D1002724E054E0314FB84233
:1005A00001D101271EE0304FB84201D1022719E0E6
:1005B0002E4FB84201D1032714E02D4FB84201D18C
:1005C00004270FE02B4FB84201D105270AE02A4F3C
:1005D000B84201D1062705E0284FB84201D10727CC
:1005E00000E0082707FA08F72743CCF80878DAF87C
:1005F00000405746D1F804C09C435FEACC2C00D59C
:100600001C433C60DBF800405F46D1F804C09C43CB
:100610005FEA8C2C00D51C433C60DEF80040774636
:10062000D1F804C09C435FEA8C3C00D51C433C607D
:10063000084F083F3C68D1F804C09C435FEACC3CBB
:1006400000D51C433C60521C102AFFF42FAFBDE8BC
:10065000F88F0000083C014044380240003001405F
:10066000000002400004024000080240000C02406A
:10067000001002400014024000180240001C02401A
:100680000AB1816170470904FBE7000001488068F6
:10069000704700006C0A002002488168027811440B
:1006A000816070476C0A00200B4810B5016841F466
:1006B00000710160016841F480610160016841F4EA
:1006C00080710160032000F061F80F2000F006F84F
:1006D00000F024F8002010BD003C024070B50D4D24
:1006E00004464FF47A712878B1FBF0F00A490968A2
:1006F000B1FBF0F000F0DEFA48B9102C07D200226E
:100700002146501E00F022F800206C6070BD0120D0
:1007100070BD00006C0A0020780A00200A4808B565
:10072000016841F480410160006800F4804000905D
:100730000548001F016841F080510160006800F029
:100740008050009008BD000044380240F0B40E4BC9
:100750001B680C46C3F30223C3F10705042D00D91F
:100760000425191D072901D2002300E0DB1E012604
:1007700006FA05F1491E214099409E40761E16401A
:100780003143F0BC00F02BBB0CED00E0064900F05B
:10079000070208684FF6FF03184040EA0220034AA8
:1007A00010430860704700000CED00E00000FA05FF
:1007B0002DE9F0470E46050065D0DFF81481D8F822
:1007C0000000F7B200F00700B04207D288F80070CE
:1007D000D8F8000000F00700B04254D128683D4C22
:1007E000810712D5400703D5206840F4E05020600F
:1007F0002878000703D5206840F460402060206816
:10080000A96820F0F000084320602878C0072DD0A8
:10081000304968680839012812D0022813D003280B
:1008200011D00968890700292DDA216821F0030118
:1008300001432160FFF72AFF814641F2883A0EE02A
:1008400009688903EFE709688901ECE7FFF71EFFF4
:10085000A0EB0901514502D90320BDE8F0872068CB
:10086000696800F00C00B0EB810FEFD1D8F80010F0
:10087000404601F00701B14207D90770006800F057
:100880000700B04201D00120E7E72878400705D5EE
:100890002068E96820F4E0500843206028780007C9
:1008A00006D52068296920F4604040EAC100206034
:1008B00000F018F82168084AC1F30311515CC840E0
:1008C0000649086006480068FFF708FF0020C4E7F3
:1008D000003C024008380240BE0E0008780A0020A2
:1008E000700A0020154810B5006810F00C0214487A
:1008F00013D01449042A0FD0082A0ED10F4C241FFC
:100900002268236802F03F025B0207D52068C0F32B
:100910008810A0FB010106E0084610BD2168C1F364
:100920008811A1FB00010023FFF7C2FC2168C1F37D
:100930000141491C4900B0FBF1F010BD08380240EC
:100940000024F40040787D012DE9F84F04006ED0BA
:100950002078DFF84C93C007A9F104054AD009F1CB
:1009600004000168C1F38101012908D00068C0F3C7
:10097000810002280AD1D9F80000400206D5286873
:10098000800337D560680028E1D033E06068B0F5B7
:10099000803F10D0B0F5A02F286810D020F4803010
:1009A0002860286820F4802028606068A8B1FFF7DC
:1009B0006DFE06460DE0286840F48030F4E740F410
:1009C00080202860F7E700BFFFF760FE801B6428E7
:1009D00073D828688003F7D50CE0FFF757FE06466A
:1009E00005E000BFFFF752FE801B6428F0D828689E
:1009F0008003F7D42078DFF8AC8280074FF0000A3C
:100A00003ED5A748001D016811F00C0F08D0006802
:100A1000C0F3810002280BD1D9F80000400207D4AE
:100A20002868800716D5E068012800D112E033E17C
:100A3000E068B8B10120C8F80000FFF727FE0646BD
:100A400005E000BFFFF722FE801B0228C0D82868FF
:100A50008007F7D52868216920F0F80040EAC10036
:100A600028600DE0C8F800A0FFF710FE064604E07D
:100A7000FFF70CFE801B02281FD828688007F7D4D8
:100A80002078000722D5864F87486169703771B199
:100A900001210160FFF7FAFD064604E0FFF7F6FDCD
:100AA000801B022809D838688007F7D50EE0C0F807
:100AB00000A0FFF7EBFD064605E082E0FFF7E6FD4C
:100AC000801B02287DD838688007F7D4207840073B
:100AD00068D5DFF8CCB100270BF13C0BDBF8000048
:100AE000C0000BD4DBF8001041F08051CBF80010AF
:100AF000DBF80000012700F0805000906B4E30685A
:100B0000C00510D4306840F480703060FFF7BEFD3F
:100B1000009005E0FFF7BAFD0099401A022850D86E
:100B20003068C005F6D55E4EA0686C3601280FD03F
:100B30000528306810D020F001003060306820F0C7
:100B400004003060A068B8B1FFF7A0FD00900FE08E
:100B5000306840F00100F4E740F004003060F7E74F
:100B6000FFF794FD0099411A41F28830814266D81E
:100B700030688007F4D50EE0FFF788FD009007E0AD
:100B8000FFF784FD0099411A41F28830814256D81E
:100B900030688007F4D42FB1DBF8001021F08051C9
:100BA000CBF80010A069C8B33D49091D0968C1F31D
:100BB000810102294AD00228504607D0C8F86000B7
:100BC00000E03CE0FFF762FD04463BE04746C8F822
:100BD0006000FFF75BFD064605E000BFFFF756FD2E
:100BE000801B02282BD828688001F7D4D4E907019C
:100BF0000843A16A2E4A490802EB0141626A41EAB0
:100C00008211084394F82C1040EA0161C9F80010E1
:100C100001203866FFF73AFD044606E03EE000BFDB
:100C2000FFF734FD001B022809D828688001F7D59A
:100C300034E000BFFFF72AFD001B022802D9032081
:100C4000BDE8F88F28688001F4D427E00128F7D0A8
:100C5000D9F80000E26900F4800191421CD1226AB7
:100C600000F03F01914217D147F6C071626A01401E
:100C7000B1EB821F10D1A26A4FF0FF3300F4403174
:100C800003EB5202B1EB024F06D194F82C1000F0A6
:100C90007060B0EB016F01D00120D1E70020CFE7F9
:100CA0000438024000004742800E47420070004076
:100CB0000000FFFF10B5401EB0F1807F01D301207E
:100CC00010BD4FF0E02460610F21601700F087F83D
:100CD0000020A06107202061002010BDFEE7000079
:100CE00030B587B014216846FFF759FB0D48002442
:100CF000016841F00101016000680B4D00F0010046
:100D00000590224601212846FFF7BAFC01210091F7
:100D1000CDE90114694628460394FFF7B9FB07B0F3
:100D200030BD00003038024000000240FEE7FEE720
:100D300070477047FFF7B0BC30B593B030216846BC
:100D4000FFF72DFB14210CA8FFF729FB1D480025F8
:100D5000016841F080510160006800F080501190FE
:100D60001948016841F4804101600068022400F4E0
:100D7000804011900120039010200490009406946C
:100D80000820CDE90750A820CDE9090404200B90E4
:100D90006846FFF7D9FD08B172B6FEE70CA90F202F
:100DA00081E831004FF4A0500F904FF48050109024
:100DB00005210CA8FFF7FCFC002801D072B6FEE765
:100DC00013B030BD40380240007000400248016856
:100DD00041F470010160704788ED00E0FEE709070B
:100DE000090E002804DB00F1E02080F800147047B1
:100DF00000F00F0000F1E02080F8141D70470000A3
:100E0000FFF752FCFFF798FFFFF76AFF0B4D40F228
:100E10009B264FF47A77002405EB8400418835F84F
:100E2000240000F00DF83220FFF720FB641CA4B270
:100E3000B442F1D33846FFF719FBECE7000000207D
:100E40002DE9F84368B1194ADFF86480B2FBF0F08D
:100E500046084FF47A725143B1FBF0F7002425465F
:100E60001FE0BDE8F8430846FFF700BB012211462A
:100E70004046FFF705FC2846009501E0401C009025
:100E8000B0EB061FFAD3002201214046FFF7F8FB22
:100E90002846009501E0401C0090B0EB061FFAD3F5
:100EA000641CBC42E2D3BDE8F883000040420F005E
:100EB000000002404FF04070E1EE100A7047000061
:100EC00000000000000001020304060708090000FA
:100ED000F00E0008000000207C0A0000C401000899
:100EE0003C1100087C0A002064060000280200086B
:100EF000500A9302E8034B02F4010B08100A930214
:100F0000EE02BA02FA00930C00055E4B02DC0520EB
:100F100010060601FA00260420054A01F401041215
:100F20002608925D0C61042128212CC11C83E80352
:100F3000402007DC050000DC054812881C120BC4A9
:100F400012EE3012EE24120BD881081004FA00B809
:100F500004128810928870125D104184C005E80365
:100F6000C40084524A2C3206642174619443EE0218
:100F7000984174920648419CA1340126E8E1180189
:100F80004AE445640128E8457441EC41F881E821D0
:100F900004259025BC458461C067F7002C5004DC13
:100FA00005B8AC610402135DF841A8928854061597
:100FB0005D0827F70070012858724AF841A881049B
:100FC00061F429E84924870B024821B816B8E025C6
:100FD000BC410C2550A1A0258841AC44058801C422
:100FE000099869CC8108412043E80308297C2150F5
:100FF000499C4D7403210885ACC1CC21C0614401DA
:1010000028605A9F0029FC16003021102DD0032D96
:1010100074032110211C52BA102D94031E4B94030B
:10102000520B886198214C21984D1C04610441A405
:1010300001101401162C61447004EE02934C6D886B
:10104000032554610461FC21C8ED7C038DD803693C
:10105000C089B449A0CC050601B80BB8040DFF70D7
:10106000030DE3700330060B02C4096E484FDC0524
:101070006C061C04B80B00D4045A6EDC6F10037CA1
:1010800006E12821242D1C031008F401A403F40117
:1010900070043A6EC04D94036D5406E1086DAC03C4
:1010A000E1047E6E40070114208D30036D98052DFC
:1010B000080721C4034CB80B546DD00321E841B09C
:1010C0002D74075E881C04CDCC0325408194610CEF
:1010D000A15C964B14295C4D2C04812461646D48FD
:1010E000042D4C084D58040F107017F807211C2DC3
:1010F00088044194769370413801102CC005F401A6
:101100003F03D4163FD036DCB00FF6B80B6C0509A0
:101110001054E1180D5E6C054D68046D34095E9F36
:101120006009160BF44934693CE9441770171150F3
:0C113000040010000100040024F4000082
:040000050800018965
:00000001FF
